{
  "contractName": "Captcha",
  "abi": [
    {
      "inputs": [],
      "stateMutability": "nonpayable",
      "type": "constructor"
    },
    {
      "anonymous": false,
      "inputs": [
        {
          "indexed": false,
          "internalType": "string",
          "name": "captchaText",
          "type": "string"
        }
      ],
      "name": "CaptchaGenerated",
      "type": "event"
    },
    {
      "anonymous": false,
      "inputs": [
        {
          "indexed": false,
          "internalType": "bool",
          "name": "isValid",
          "type": "bool"
        }
      ],
      "name": "CaptchaValidated",
      "type": "event"
    },
    {
      "inputs": [],
      "name": "captchaText",
      "outputs": [
        {
          "internalType": "string",
          "name": "",
          "type": "string"
        }
      ],
      "stateMutability": "view",
      "type": "function",
      "constant": true
    },
    {
      "inputs": [],
      "name": "isValid",
      "outputs": [
        {
          "internalType": "bool",
          "name": "",
          "type": "bool"
        }
      ],
      "stateMutability": "view",
      "type": "function",
      "constant": true
    },
    {
      "inputs": [],
      "name": "userResponse",
      "outputs": [
        {
          "internalType": "string",
          "name": "",
          "type": "string"
        }
      ],
      "stateMutability": "view",
      "type": "function",
      "constant": true
    },
    {
      "inputs": [
        {
          "internalType": "string",
          "name": "text",
          "type": "string"
        }
      ],
      "name": "generateCaptcha",
      "outputs": [],
      "stateMutability": "nonpayable",
      "type": "function"
    },
    {
      "inputs": [
        {
          "internalType": "string",
          "name": "response",
          "type": "string"
        }
      ],
      "name": "validateCaptcha",
      "outputs": [],
      "stateMutability": "nonpayable",
      "type": "function"
    }
  ],
  "bytecode": "0x608060405234801561001057600080fd5b506108ad806100206000396000f3fe608060405234801561001057600080fd5b50600436106100575760003560e01c80637fbcd1bf1461005c578063aa5bd06f14610078578063bb5d40eb14610094578063cd7bd126146100b2578063fb5dbe2f146100d0575b600080fd5b61007660048036038101906100719190610584565b6100ee565b005b610092600480360381019061008d9190610584565b610207565b005b61009c610258565b6040516100a991906105e8565b60405180910390f35b6100ba61026b565b6040516100c7919061068b565b60405180910390f35b6100d86102f9565b6040516100e5919061068b565b60405180910390f35b60008080546100fc906106dc565b90501161013e576040517f08c379a000000000000000000000000000000000000000000000000000000000815260040161013590610759565b60405180910390fd5b8060019080519060200190610154929190610387565b5060006040516020016101679190610818565b604051602081830303815290604052805190602001208160405160200161018e9190610860565b6040516020818303038152906040528051906020012014600260006101000a81548160ff0219169083151502179055507f49d2395358be2804718b40a3ccc6e4271f95e4f47bdf3716e730e27b878824c5600260009054906101000a900460ff166040516101fc91906105e8565b60405180910390a150565b806000908051906020019061021d929190610387565b507f36d71df7f2ec192a0235f0d52143cf6cf39d7b69a17fe2ebc480ae44887e15a28160405161024d919061068b565b60405180910390a150565b600260009054906101000a900460ff1681565b60018054610278906106dc565b80601f01602080910402602001604051908101604052809291908181526020018280546102a4906106dc565b80156102f15780601f106102c6576101008083540402835291602001916102f1565b820191906000526020600020905b8154815290600101906020018083116102d457829003601f168201915b505050505081565b60008054610306906106dc565b80601f0160208091040260200160405190810160405280929190818152602001828054610332906106dc565b801561037f5780601f106103545761010080835404028352916020019161037f565b820191906000526020600020905b81548152906001019060200180831161036257829003601f168201915b505050505081565b828054610393906106dc565b90600052602060002090601f0160209004810192826103b557600085556103fc565b82601f106103ce57805160ff19168380011785556103fc565b828001600101855582156103fc579182015b828111156103fb5782518255916020019190600101906103e0565b5b509050610409919061040d565b5090565b5b8082111561042657600081600090555060010161040e565b5090565b6000604051905090565b600080fd5b600080fd5b600080fd5b600080fd5b6000601f19601f8301169050919050565b7f4e487b7100000000000000000000000000000000000000000000000000000000600052604160045260246000fd5b61049182610448565b810181811067ffffffffffffffff821117156104b0576104af610459565b5b80604052505050565b60006104c361042a565b90506104cf8282610488565b919050565b600067ffffffffffffffff8211156104ef576104ee610459565b5b6104f882610448565b9050602081019050919050565b82818337600083830152505050565b6000610527610522846104d4565b6104b9565b90508281526020810184848401111561054357610542610443565b5b61054e848285610505565b509392505050565b600082601f83011261056b5761056a61043e565b5b813561057b848260208601610514565b91505092915050565b60006020828403121561059a57610599610434565b5b600082013567ffffffffffffffff8111156105b8576105b7610439565b5b6105c484828501610556565b91505092915050565b60008115159050919050565b6105e2816105cd565b82525050565b60006020820190506105fd60008301846105d9565b92915050565b600081519050919050565b600082825260208201905092915050565b60005b8381101561063d578082015181840152602081019050610622565b8381111561064c576000848401525b50505050565b600061065d82610603565b610667818561060e565b935061067781856020860161061f565b61068081610448565b840191505092915050565b600060208201905081810360008301526106a58184610652565b905092915050565b7f4e487b7100000000000000000000000000000000000000000000000000000000600052602260045260246000fd5b600060028204905060018216806106f457607f821691505b602082108103610707576107066106ad565b5b50919050565b7f43617074636861206e6f742067656e6572617465640000000000000000000000600082015250565b600061074360158361060e565b915061074e8261070d565b602082019050919050565b6000602082019050818103600083015261077281610736565b9050919050565b600081905092915050565b60008190508160005260206000209050919050565b600081546107a6816106dc565b6107b08186610779565b945060018216600081146107cb57600181146107dc5761080f565b60ff1983168652818601935061080f565b6107e585610784565b60005b83811015610807578154818901526001820191506020810190506107e8565b838801955050505b50505092915050565b60006108248284610799565b915081905092915050565b600061083a82610603565b6108448185610779565b935061085481856020860161061f565b80840191505092915050565b600061086c828461082f565b91508190509291505056fea264697066735822122095b6264ad759e0064e869f45c3997efecaadd57cc6bd9cb57ee91ee28d07e28764736f6c634300080d0033",
  "immutableReferences": {},
  "source": "// SPDX-License-Identifier: UNKNOWN \r\n// contracts/Captcha.sol\r\n\r\npragma solidity >=0.4.25 <0.9.0;\r\n\r\ncontract Captcha {\r\n    string public captchaText;\r\n    string public userResponse;\r\n    bool public isValid;\r\n\r\n    event CaptchaGenerated(string captchaText);\r\n    event CaptchaValidated(bool isValid);\r\n\r\n    constructor() {\r\n        // Initialize contract state or do any setup here\r\n    }\r\n\r\n    function generateCaptcha(string memory text) public {\r\n        captchaText = text;\r\n        emit CaptchaGenerated(text);\r\n    }\r\n\r\n    function validateCaptcha(string memory response) public {\r\n        require(bytes(captchaText).length > 0, \"Captcha not generated\");\r\n        userResponse = response;\r\n        // Example validation logic\r\n        isValid = (keccak256(abi.encodePacked(response)) == keccak256(abi.encodePacked(captchaText)));\r\n        emit CaptchaValidated(isValid);\r\n    }\r\n}\r\n",
  "sourcePath": "C:\\Users\\User\\Documents\\Truffle project\\truffle 1\\contracts\\Captcha.sol",
  "compiler": {
    "name": "solc",
    "version": "0.8.13+commit.abaa5c0e.Emscripten.clang"
  },
  "schemaVersion": "3.4.16",
  "updatedAt": "2024-05-28T13:32:16.860Z",
  "networkType": "ethereum",
  "devdoc": {
    "kind": "dev",
    "methods": {},
    "version": 1
  },
  "userdoc": {
    "kind": "user",
    "methods": {},
    "version": 1
  }
}